:020000040000FA
:060000000A128A110E280D
:10000800FE00030E83120313B5000A08B6000A1295
:100018008A112D280A128A11112883133430FD0001
:100028000130FE00BA30FF002A3084000A128A111B
:10003800AB210A128A11A001A101A201A301A40106
:10004800A501A601A701A801A90183010A128A1125
:10005800B2280B1C302831284D28061C3428352896
:1000680040280130B400340885070130A20703187E
:10007800A30A0030A3070B10861C432844284D28E8
:10008800013085020130A2020030031CA303A30241
:100098000B100B1D50285128AB280130A00703185E
:1000A800A10A0030A1070A30F8000030F9006430D6
:1000B800F0000030F1002308F3002208F2000A12D1
:1000C8008A1104210A128A117108FB007008FA00CB
:1000D8000A128A1148210A128A1179088312031315
:1000E800A9007808A8000A30F8000030F9000A30A2
:1000F800F0000030F1002308F3002208F2000A1291
:100108008A1104210A128A117108FB007008FA008A
:100118000A128A1148210A128A11790883120313D4
:10012800A7007808A6000A30F8000030F900230874
:10013800FB002208FA000A128A1148210A128A11C1
:10014800790883120313A5007808A4000B11360858
:100158008A00350E8300FE0E7E0E09000A128A11EF
:1001680082210A128A118312031328082A3E840066
:1001780083130008870009140D3083120313B80095
:10018800FB30B700B70BC628B80BC6288312031379
:10019800091026082A3E8400831300088700891462
:1001A8000D3083120313B800FB30B700B70BDA2801
:1001B800B80BDA2883120313891024082A3E840016
:1001C80083130008870009150D3083120313B80044
:1001D800FB30B700B70BEE28B80BEE2883120313D9
:1001E800091100302302FF3003192202031CFD28E5
:1001F800FE28B728A201A301B7280A128A110E28DF
:10020800F501F6017008710403190B290C2943291B
:10021800F701F70A1A2901300310F00DF10DFF3E1E
:10022800031D10290130F4007408F707F11F1D2978
:100238001E290F2901300310F50DF60DFF3E031D91
:100248001F2971087302031D2B2970087202031CF1
:100258002E292F2936297008F2027108031CF3038E
:10026800F302751401300310F10CF00CFF3E031D6E
:1002780037290130F702031D422943291E29760830
:10028800F1007508F00008007808790403194D2971
:100298004E297D29FD01FD0A5C2901300310F80D66
:1002A800F90DFF3E031D52290130FC007C08FD07B3
:1002B800F91F5F296029512979087B02031D6629E6
:1002C80078087A02031C69296A2970297808FA02D1
:1002D8007908031CFB03FB0201300310F90CF80C2E
:1002E800FF3E031D71290130FD02031D7C297D2974
:1002F80060297B08F9007A08F800080083160317BC
:10030800880189018316031385010330860087015C
:10031800890183120313850103308600870189014F
:10032800831603130F178F160F120F1481128111E2
:100338000115811401148B178B160B118B160B10DA
:100348001614961408007E088A007F0882000A1294
:100358008A11A7210A128A118000840A04087D06DE
:1003680003190034FF0A0319FE0AAB293F34063487
:100378005B344F3466346D347D3407347F346F34E6
:04400E00D420FF3F7C
:00000001FF
