:020000040000FA
:060000000A128A110C280F
:10000800FE00030EF0000A08F1000A128A113A28CD
:100018000A128A110F2883010A128A1132288316BC
:10002800031788018901831603138501C0308600F0
:100038008701831203138501C03086008701831668
:1000480003130F178F160F120F1481128111011548
:10005800811401148B178B160B1108000A128A11D0
:1000680013200A128A110A128A110C2871088A00B0
:0A007800700E8300FE0E7E0E0900DC
:04400E00D420FF3F7C
:00000001FF
